:1000000012C019C018C017C016C015C014C013C044
:1000100012C011C010C00FC00EC00DC00CC00BC06C
:100020000AC009C008C011241FBECFE5D4E0DEBF5E
:10003000CDBF5BD0FFC0E4CF9C016130710519F4E6
:1000400081E085BB10C06230710519F482E085BB88
:100050000FC06330710511F484E00EC06430710587
:1000600011F488E009C06530710511F480E104C025
:100070006630710511F480E285BB2130310519F439
:1000800089EF82BB12C02230310519F484EA82BBA9
:1000900012C02330310519F480EB82BB11C024302B
:1000A000310519F489E982BB10C02530310519F4F6
:1000B00082E982BB0FC02630310511F482E80EC000
:1000C0002730310511F488EF09C02830310511F4CB
:1000D00080E804C02930310519F480E982BB089515
:1000E000232B11F480EC82BB08955F926F927F9274
:1000F0008F929F92AF92BF92CF92DF92EF92FF9238
:100100000F931F93CF93DF938FEF81BB84BB8FE05F
:1001100087BB01E010E0CC24DD24C0E0D0E040EA61
:10012000A42E4FE0B42E30E9832E31E0932E22E04E
:10013000522E06C001E010E066247724C0E0D0E033
:10014000B59904C091E0C92ED12C04C081E0C81635
:10015000D104C9F4CE0165E070E06EDFC5010197FE
:10016000F1F780E090E066E070E066DFC50101979E
:10017000F1F7B59908C088EB9BE0F4013197F1F7EE
:100180000197D9F72196B4990EC088EB9BE0F40152
:100190003197F1F70197D9F70F5F1F4FCC24DD247A
:1001A00089E0682E712C00FDCBCF7E0128C000E0D5
:1001B00010E0C70163E070E03FDFC5010197F1F790
:1001C00080E090E064E070E037DFC5010197F1F76F
:1001D000CE0161E070E030DFC5010197F1F780E00A
:1001E00090E062E070E028DFC5010197F1F70F5F52
:1001F0001F4F0A3F1105E9F62197D7FFD8CF089482
:10020000E108F1088FEFE8168FEFF80611F0E3012F
:10021000F4CF58BA80ED97E0F4013197F1F70197E8
:10022000D9F718BA80ED97E0F4013197F1F701970B
:08023000D9F780CFF894FFCF4D
:00000001FF
