:1000000012C019C018C017C016C015C014C013C044
:1000100012C011C010C00FC00EC00DC00CC00BC06C
:100020000AC009C008C011241FBECFE5D4E0DEBF5E
:10003000CDBF20D073C0E4CF40E050E060E971E074
:1000400015C0FB013197F1F721503040D1F788BB43
:1000500024EC39E0FB013197F1F721503040D1F722
:1000600018BA4F5F5F4F4A30510519F024EC39E060
:10007000E8CF0895CF92DF92EF92FF920F931F93F4
:10008000CF93DF938FE087BBC0E0D0E000E911E0C1
:1000900024E0C22E92E0D92EEE24E39488E0F82EDC
:1000A000B4990BC080ED97E0F8013197F1F7019713
:1000B000D9F72196C530D10574F5C130D10511F4B9
:1000C000E8BA0AC0C230D10511F4D8BA09C0C330A9
:1000D000D10511F4C8BA04C0C430D10509F4F8BA86
:1000E000B599DECFC130D10519F481E090E011C09F
:1000F000C230D10519F482E090E00BC0C330D105C5
:1001000019F484E090E005C0C430D10549F688E0D8
:1001100090E092DFC5CFC0E0D0E0DECFF894FFCF13
:00000001FF
