:1000000012C02CC02BC02AC029C028C027C026C0BF
:1000100025C024C023C022C021C020C01FC01EC0D4
:100020001DC01CC01BC011241FBECFE5D4E0DEBF25
:10003000CDBF10E0A0E6B0E0E6EAF3E002C0059034
:100040000D92AE3BB107D9F710E0AEEBB0E001C0C6
:100050001D92A13CB107E1F7C6D0A3C1D1CF209139
:10006000BE0090E002C09F5F2BE09817E0F3209362
:10007000BE009093BF000895C59888ECF0DFC59A44
:1000800088ECEDDFC59808951F93182F88B38F7CF7
:1000900088BB812F82958F7088BBEEDF1F7018BBE5
:1000A000EBDF1F9108951F93182F80E188BB18BACA
:1000B000812F82958F70806188BBDEDF1F70106199
:1000C00018BBDADF1F910895CF93DF93EC0102C0D4
:1000D000EADF219688818823D9F7DF91CF910895AF
:1000E000EF92FF920F931F93182F64E627D1482FAA
:1000F000282F30E08CE99FEF289F7001299FF00C9A
:10010000389FF00C1124C701810F911D6AE070E047
:1001100021D1062F842F805DC6DF802F805DC3DF55
:10012000105D1E0D86EF9FEF089F002D1124802F7C
:10013000810FB9DF1F910F91FF90EF9008958823F1
:1001400021F4862F8058A0DF0895813019F4862F7E
:1001500080549ADF08950AC020E030E000002F5F4D
:100160003F4F4CE02C3C3407C9F701970097A1F7AB
:1001700008951F938FE387BB84E190E0ECDF13E0E9
:1001800018BB7ADF85E090E0E6DF18BB75DF81E021
:1001900090E0E1DF18BB70DF81E090E0DCDF82E01F
:1001A00088BB6ADF85E090E0D6DF88E26DDF81E022
:1001B00090E0D1DF88E068DF81E090E0CCDF81E093
:1001C00063DF81E090E0C7DF86E05EDF81E090E002
:1001D000C2DF8CE059DF82E090E0BDDF1F9108951F
:1001E00081E052DF0895EF92FF921F93CF93DF9348
:1001F000C0DF8FE081BB11E0C0E0D0E080E9E82EF5
:1002000081E0F82E84990CC088EB9BE0F7013197D0
:10021000F1F70197D9F72196110F103209F411E087
:10022000859912C088EB9BE0F7013197F1F70197B0
:10023000D9F7812F869582BB80E593ECF701319742
:10024000F1F70197D9F712BAC230D10511F1C330D5
:10025000D10534F4209759F0C130D10599F613C077
:10026000C330D105E1F0C430D10561F61EC080E095
:1002700060E065DF80E690E027DF81E060E05FDF3F
:1002800080E790E017C081E060E059DF82E890E00D
:1002900011C081E060E053DF8DE890E00BC081E0A9
:1002A00060E04DDF8EE990E005C081E060E047DF6F
:1002B0008EEA90E009DFA6CFDF93CF93CDB7DEB70C
:1002C000A8970FB6F894DEBF0FBECDBF8130910561
:1002D00049F4FE0131968AE0DF011D928A95E9F723
:1002E0008C8523C08230910549F4FE013B968AE05B
:1002F000DF011D928A95E9F78D8917C0833091053A
:1003000049F4FE0175968AE0DF011D928A95E9F7AE
:100310008F8D0BC0049749F4FE017F968AE0DF01C0
:100320001D928A95E9F789A500C0A8960FB6F894A2
:10033000DEBF0FBECDBFCF91DF910895991B79E04D
:1003400004C0991F961708F0961B881F7A95C9F765
:100350008095089597FB092E07260AD077FD04D0D3
:100360000CD006D000201AF4709561957F4F089547
:10037000F6F7909581959F4F0895AA1BBB1B51E1FD
:1003800007C0AA1FBB1FA617B70710F0A61BB70B05
:10039000881F991F5A95A9F780959095BC01CD01AA
:0603A0000895F894FFCF60
:1003A600507265737320746F2053656C65637400B7
:1003B6002020202020202020202020202020202037
:1003C6002000436F6C64205761746572004D696C40
:1003D6006B20202020202020202020202000546573
:1003E6006120202020202020202020202000436F74
:0E03F600666665652020202020202020200043
:00000001FF
