:1000000012C019C018C017C016C015C014C013C044
:1000100012C011C010C00FC00EC00DC00CC00BC06C
:100020000AC009C008C011241FBECFE5D4E0DEBF5E
:10003000CDBF29D02CC0E4CF42E050E061E070E0B9
:10004000A0E9B1E01CC068BB88E893E1FD013197ED
:10005000F1F70197D9F718BA88E893E1FD013197D4
:10006000F1F70197D9F72F5F3F4F241735075CF35E
:10007000660F771F4530510529F04F5F5F4F21E034
:1000800030E0E1CF08958FE087BBD6DFFECFF89454
:02009000FFCFA0
:00000001FF
