:1000000012C021C020C01FC01EC01DC01CC01BC00C
:100010001AC019C018C017C016C015C014C013C02C
:1000200012C011C010C011241FBECFE5D4E0DEBF46
:10003000CDBF10E0A0E6B0E001C01D92A736B10729
:10004000E1F7D5D01FC1DCCF86E886B9089590E6E8
:1000500097B997B1982B97B9369A8AEF90E00197A4
:10006000F1F785B108952091600090E002C09F5F94
:100070002BE09817E0F320936000909361000895BF
:10008000C59888ECF0DFC59A88ECEDDFC598089537
:100090001F93182F88B38F7C88BB812F82958F7018
:1000A00088BBEEDF1F7018BBEBDF1F9108951F9315
:1000B000182F80E188BB18BA812F82958F708061DC
:1000C00088BBDEDF1F70106118BBDADF1F91089557
:1000D000CF93DF93EC0102C0EADF21968881882369
:1000E000D9F7DF91CF910895EF92FF920F931F936D
:1000F000182F64E694D0482F282F30E08CE99FEF2A
:10010000289F7001299FF00C389FF00C1124C70123
:10011000810F911D6AE070E08ED0062F842F805DE4
:10012000C6DF802F805DC3DF105D1E0D86EF9FEF61
:10013000089F002D1124802F810FB9DF1F910F918F
:10014000FF90EF900895882321F4862F8058A0DF38
:100150000895813019F4862F80549ADF08950AC0DB
:1001600020E030E000002F5F3F4F4CE02C3C340794
:10017000C9F701970097A1F708951F938FE387BBF5
:1001800084E190E0ECDF13E018BB7ADF85E090E0DB
:10019000E6DF18BB75DF81E090E0E1DF18BB70DFC0
:1001A00081E090E0DCDF82E088BB6ADF85E090E000
:1001B000D6DF88E26DDF81E090E0D1DF88E068DFA4
:1001C00081E090E0CCDF81E063DF81E090E0C7DF99
:1001D00086E05EDF81E090E0C2DF8CE059DF82E004
:1001E00090E0BDDF1F91089581E052DF08950F93E5
:1001F0001F93CF93DF93C1DF86E886B900E6CAEF8D
:10020000D0E007B987B187B9369ACE010197F1F7E7
:1002100015B180E060E097DF812F66DFF2CF991B98
:1002200079E004C0991F961708F0961B881F7A95ED
:10023000C9F78095089597FB092E07260AD077FD08
:1002400004D00CD006D000201AF4709561957F4F31
:100250000895F6F7909581959F4F0895AA1BBB1BB3
:1002600051E107C0AA1FBB1FA617B70710F0A61BB6
:10027000B70B881F991F5A95A9F780959095BC01D7
:08028000CD010895F894FFCFB1
:00000001FF
