:1000000012C02CC02BC02AC029C028C027C026C0BF
:1000100025C024C023C022C021C020C01FC01EC0D4
:100020001DC01CC01BC011241FBECFE5D4E0DEBF25
:10003000CDBF10E0A0E6B0E0E0E0F3E002C0059044
:100040000D92AC36B107D9F710E0ACE6B0E001C0D4
:100050001D92AF36B107E1F7E2D050C1D1CF209168
:100060006C0090E002C09F5F2BE09817E0F32093B4
:100070006C0090936D000895C59888ECF0DFC59AE8
:1000800088ECEDDFC59808951F93182F88B38F7CF7
:1000900088BB812F82958F7088BBEEDF1F7018BBE5
:1000A000EBDF1F9108951F93182F80E188BB18BACA
:1000B000812F82958F70806188BBDEDF1F70106199
:1000C00018BBDADF1F910895CF93DF93EC0102C0D4
:1000D000EADF219688818823D9F7DF91CF910895AF
:1000E000EF92FF920F931F93182F64E6D4D0482FFE
:1000F000282F30E08CE99FEF289F7001299FF00C9A
:10010000389FF00C1124C701810F911D6AE070E047
:10011000CED0062F842F805DC6DF802F805DC3DFA9
:10012000105D1E0D86EF9FEF089F002D1124802F7C
:10013000810FB9DF1F910F91FF90EF9008958823F1
:1001400021F4862F8058A0DF0895813019F4862F7E
:1001500080549ADF08950AC020E030E000002F5F4D
:100160003F4F4CE02C3C3407C9F701970097A1F7AB
:1001700008951F938FE387BB84E190E0ECDF13E0E9
:1001800018BB7ADF85E090E0E6DF18BB75DF81E021
:1001900090E0E1DF18BB70DF81E090E0DCDF82E01F
:1001A00088BB6ADF85E090E0D6DF88E26DDF81E022
:1001B00090E0D1DF88E068DF81E090E0CCDF81E093
:1001C00063DF81E090E0C7DF86E05EDF81E090E002
:1001D000C2DF8CE059DF82E090E0BDDF1F9108951F
:1001E00081E052DF089541E050E060E971E082BBB8
:1001F00028E833E1FB013197F1F721503040D1F786
:1002000012BA28E833E1FB013197F1F72150304071
:10021000D1F74F5F5F4F4B30510549F70895EF928B
:10022000FF920F931F93CF93DF938FE081BBA1DFEA
:1002300001E010E0C1E0D0E090E9E92E91E0F92E74
:1002400080E060E07CDF8C2F4BDF849917C080ED6D
:1002500097E0F7013197F1F70197D9F7000F111FD8
:100260000031110529F401E010E0C1E0D0E001C047
:10027000219680E060E063DF8C2F32DF8599E0CF4C
:1002800081E060E05CDF80E690E01EDF8C2F28DFFD
:10029000C801A9DFD5CF991B79E004C0991F961733
:1002A00008F0961B881F7A95C9F78095089597FBEB
:1002B000092E07260AD077FD04D00CD006D00020E6
:1002C0001AF4709561957F4F0895F6F79095819592
:1002D0009F4F0895AA1BBB1B51E107C0AA1FBB1F5C
:1002E000A617B70710F0A61BB70B881F991F5A95C2
:1002F000A9F780959095BC01CD010895F894FFCFA2
:0C030000426C696E6B204C6564203A0072
:00000001FF
