:1000000012C019C018C017C016C015C014C013C044
:1000100012C011C010C00FC00EC00DC00CC00BC06C
:100020000AC009C008C011241FBECFE5D4E0DEBF5E
:10003000CDBF78D0E8C0E4CF9C01A89AA9988130C0
:10004000910519F489EF82BB12C08230910519F431
:1000500084EA82BB12C08330910519F480EB82BB25
:1000600011C08430910519F489E982BB10C0253094
:10007000310519F482E982BB0FC02630310511F435
:1000800082E80EC02730310511F488EF09C028300E
:10009000310511F480E804C02930310519F480E9F4
:1000A00082BB0895232B11F480EC82BB08959C0140
:1000B000A99AA8988130910519F489EF82BB12C0E2
:1000C0008230910519F484EA82BB12C08330910515
:1000D00019F480EB82BB11C08430910519F489E9D1
:1000E00082BB10C02530310519F482E982BB0FC0F4
:1000F0002630310511F482E80EC02730310511F4A5
:1001000088EF09C02830310511F480E804C0293097
:10011000310519F480E982BB0895232B11F480EC9A
:1001200082BB08958F929F92AF92BF92CF92DF923F
:10013000EF92FF920F931F93CF93DF938FEF81BBCB
:100140008FE084BBC0E0D0E090E9892E91E0992E49
:1001500080ECA82E8DE5B82E29C0CA30D10554F404
:10016000CE016ADF88E893E1F4013197F1F7019756
:10017000D9F71BC0CE016AE070E01ED06C01CE0141
:100180006AE070E019D07B0100E010E0C60154DFA6
:10019000C5010197F1F7C7018ADFC5010197F1F7A2
:1001A0000F5F1F4F0832110589F72196CE31D10517
:1001B000A4F2C0E0D0E0D4CF97FB092E07260AD0E6
:1001C00077FD04D00CD006D000201AF4709561950C
:1001D0007F4F0895F6F7909581959F4F0895AA1B3C
:1001E000BB1B51E107C0AA1FBB1FA617B70710F022
:1001F000A61BB70B881F991F5A95A9F78095909554
:0A020000BC01CD010895F894FFCF72
:00000001FF
