:1000000012C024C023C022C021C020C01FC01EC0F7
:100010001DC01CC01BC01AC019C018C017C016C014
:1000200015C014C013C011241FBECFE5D4E0DEBF3D
:10003000CDBF10E0A0E6B0E0ECE1F1E002C0059039
:100040000D92A236B107D9F73CD066C0D9CFB2998C
:1000500012C088EE93E020E931E0F9013197F1F721
:100060000197D9F78091600090916100019690937B
:10007000610080936000809160009091610080FD3C
:1000800003C082E090E008C062E070E01ED08130E2
:10009000910511F481E090E088BB84EC99E020E9BF
:1000A00031E0F9013197F1F70197D9F718BA84ECEB
:1000B00099E020E931E0F9013197F1F70197D9F79B
:1000C000089583E087BBC3DFFECF97FB092E072689
:1000D0000AD077FD04D00CD006D000201AF4709519
:1000E00061957F4F0895F6F7909581959F4F0895FC
:1000F000AA1BBB1B51E107C0AA1FBB1FA617B7074E
:1001000010F0A61BB70B881F991F5A95A9F7809569
:0C0110009095BC01CD010895F894FFCF3C
:02011C000100E0
:00000001FF
