:1000000012C02CC02BC02AC029C028C027C026C0BF
:1000100025C024C023C022C021C020C01FC01EC0D4
:100020001DC01CC01BC011241FBECFE5D4E0DEBF25
:10003000CDBF11E0A0E6B0E0EEE9FAE002C0059025
:100040000D92A037B107D9F711E0A0E7B1E001C0E8
:100050001D92A737B107E1F7D5D01FC5D1CF86E8EC
:1000600086B9089590E697B997B1982B97B9369AC3
:1000700080EA9FE00197F1F785B108952091700122
:1000800090E002C09F5F2BE09817E0F3209370018F
:10009000909371010895C59888ECF0DFC59A88ECBB
:1000A000EDDFC59808951F93182F88B38F7C88BB08
:1000B000812F82958F7088BBEEDF1F7018BBEBDF3E
:1000C0001F9108951F93182F80E188BB18BA812FC4
:1000D00082958F70806188BBDEDF1F70106118BB56
:1000E000DADF1F910895CF93DF93EC0102C0EADFBE
:1000F000219688818823D9F7DF91CF910895EF92D7
:10010000FF920F931F93182F64E65DD4482F282F7A
:1001100030E08CE99FEF289F7001299FF00C389FF9
:10012000F00C1124C701810F911D6AE070E057D4D3
:10013000062F842F805DC6DF802F805DC3DF105DBA
:100140001E0D86EF9FEF089F002D1124802F810F39
:10015000B9DF1F910F91FF90EF900895882321F44C
:10016000862F8058A0DF0895813019F4862F80549F
:100170009ADF08950AC020E030E000002F5F3F4F73
:100180004CE02C3C3407C9F701970097A1F708957C
:100190001F938FE387BB84E190E0ECDF13E018BB93
:1001A0007ADF85E090E0E6DF18BB75DF81E090E064
:1001B000E1DF18BB70DF81E090E0DCDF82E088BB2C
:1001C0006ADF85E090E0D6DF88E26DDF81E090E0D5
:1001D000D1DF88E068DF81E090E0CCDF81E063DFA1
:1001E00081E090E0C7DF86E05EDF81E090E0C2DF83
:1001F0008CE059DF82E090E0BDDF1F91089581E03F
:1002000052DF08953F924F925F926F927F928F924A
:100210009F92AF92BF92CF92DF92EF92FF920F9395
:100220001F93CF93DF938FEF87BB8FE081BB86E86F
:1002300086B9AEDFC0E0D0E040E6342E30EA632E6F
:100240003FE0732E20E9422E21E0522E90E2892ECB
:100250009EE4992E80E6A82E78C0A7B887B1856065
:1002600087B9369AC3010197F1F7E5B080E060E005
:1002700075DF8E2D44DF81E060E070DFFF24002712
:10028000F7FC0095102FC801B70156D12AE037EDD1
:1002900043E25DE35CD0AAD18B01862F30DF80E0A2
:1002A00064E05CDF80E690E01EDF80E06BE056DF1C
:1002B000802F25DF80E06FE051DF86E690E013DFDE
:1002C00037B83A9A369AC3010197F1F785B190E0B1
:1002D0004E973CF488EB9BE0F2013197F1F70197E0
:1002E000D9F781E065E03ADF8C2F09DFC40101977F
:1002F000F1F781E068E032DF8AE3E4DE81E06AE082
:100300002DDF8B2DFCDEC4010197F1F7C017D1075B
:1003100019F481E082BB04C00C171D070CF412BA5B
:100320000894C11CD11C85E6C816D10409F095CFEC
:10033000B3948AE0B81619F0CC24DD248ECF219630
:10034000C630D10514F0C0E0D0E0BB24F5CFA0E268
:10035000B0E0ECEAF1E06AC369837A838B839C8323
:100360002D833E834F835887CE010196BE01675F80
:100370007F4FB1D2CE010596BE016F5E7F4FABD2EB
:100380009985923088F089898230C8F0943019F4C8
:10039000823051F404C0843029F4923081F488E62C
:1003A00090E0C6C0923049F420E09A858A8998137B
:1003B00021E02A87CE010996BBC0823049F420E0B3
:1003C0009A858A89981321E02A8BCE014196B0C084
:1003D0002D843E844F8458886D887E888F88988CC1
:1003E000EE24FF248701AA24BB24650140E050E0ED
:1003F00060E070E0E0E0F0E0C10181709070892B76
:10040000E9F0E60CF71C081D191D9A01AB012A0D35
:100410003B1D4C1D5D1D80E090E0A0E0B0E0E614C7
:10042000F7040805190520F481E090E0A0E0B0E0B1
:10043000BA01A901480F591F6A1F7B1FAA0CBB1CD8
:10044000CC1CDD1C97FE08C081E090E0A0E0B0E08D
:10045000A82AB92ACA2ADB2A3196E032F10549F0E6
:10046000660C771C881C991C5694479437942794E3
:10047000C3CFFA85EA892B893C898B859C85280F17
:10048000391F2E5F3F4F17C0CA0181709070892BB2
:1004900061F016950795F794E79480E090E0A0E06E
:1004A000B0E8E82AF92A0A2B1B2B76956795579511
:1004B00047952F5F3F4F77FDE7CF0CC0440F551F87
:1004C000661F771F17FD4160EE0CFF1C001F111FF8
:1004D00021503040403090E0590790E0690790E4A7
:1004E000790760F32B8F3C8FDB01CA018F77907007
:1004F000A070B07080349105A105B10561F447FD8D
:100500000AC0E114F1040105110529F0405C5F4FB8
:100510006F4F7F4F40781A8EFE1711F081E08A8F5F
:100520004D8F5E8F6F8F78A383E0898FCE014996C0
:10053000FDD0A096E2E196C2A8E0B0E0E1EAF2E0E8
:100540007EC29B01AC0183E08983DA01C90188275F
:10055000B7FD83959927AA27BB27B82E211531050A
:100560004105510519F482E0898339C08823A9F037
:10057000203080E0380780E0480780E8580729F4F9
:1005800060E070E080E09FEC2EC0EE24FF24870145
:10059000E21AF30A040B150B02C079018A018EE1FD
:1005A000C82ED12CDC82CB82ED82FE820F8318878D
:1005B000C801B7016CD001971816190684F4082EEB
:1005C00004C0EE0CFF1C001F111F0A94D2F7ED822D
:1005D000FE820F831887C81AD90ADC82CB82BA82BE
:1005E000CE010196A3D02896E9E045C2ACE0B0E088
:1005F000EBEFF2E02BC269837A838B839C83CE017D
:100600000196BE016B5F7F4F66D18D81823061F1B3
:10061000823050F1843021F48E81882351F12EC034
:100620002F81388537FD20C06E812F3131051CF0B8
:100630006623F9F023C08EE190E0821B930B29859D
:100640003A854B855C8504C0569547953795279527
:100650008A95D2F76623B1F0509540953095219553
:100660003F4F4F4F5F4F0EC020E030E040E050E082
:1006700009C02FEF3FEF4FEF5FE704C020E030E00D
:1006800040E050E8B901CA012C96E2E0FBC1EF92CC
:10069000FF920F931F937B018C0180E0E81680E0AE
:1006A000F80681E0080780E0180788F48FEFE81665
:1006B000F1040105110531F028F088E090E0A0E098
:1006C000B0E017C080E090E0A0E0B0E012C080E0B1
:1006D000E81680E0F80680E0080781E0180728F0B7
:1006E00088E190E0A0E0B0E004C080E190E0A0E00C
:1006F000B0E020E230E040E050E0281B390B4A0B2C
:100700005B0B04C016950795F794E7948A95D2F78A
:10071000F701E059FF4F8081281B31094109510938
:10072000C9011F910F91FF90EF900895DF92EF9212
:10073000FF920F931F93FC01E480F58006811781DF
:10074000D1808081823048F480E090E0A0E1B0E088
:10075000E82AF92A0A2B1B2BA5C0843009F49FC074
:10076000823021F4EE24FF24870105C0E114F10456
:100770000105110519F4E0E0F0E096C06281738193
:100780009FEF623879070CF05BC022E83FEF261B31
:10079000370B2A3131052CF020E030E040E050E00A
:1007A0002AC0B801A701022E04C076956795579517
:1007B00047950A94D2F781E090E0A0E0B0E004C051
:1007C000880F991FAA1FBB1F2A95D2F70197A1096D
:1007D000B1098E219F21A023B1230097A105B10566
:1007E00021F081E090E0A0E0B0E09A01AB01282B7D
:1007F000392B4A2B5B2BDA01C9018F779070A070DF
:10080000B07080349105A105B10539F427FF09C006
:10081000205C3F4F4F4F5F4F04C0215C3F4F4F4F15
:100820005F4FE0E0F0E02030A0E03A07A0E04A07A8
:10083000A0E45A0710F0E1E0F0E079018A0127C056
:100840006038710564F5FB01E158FF4FD801C7011D
:100850008F779070A070B07080349105A105B105BC
:1008600039F4E7FE0DC080E490E0A0E0B0E004C001
:100870008FE390E0A0E0B0E0E80EF91E0A1F1B1F16
:1008800017FF05C016950795F794E794319687E012
:1008900016950795F794E7948A95D1F705C0EE244D
:1008A000FF248701EFEFF0E06E2F679566276795CD
:1008B000902F9F77D794DD24D7948E2F8695492F3C
:1008C000462B582F5D29B701CA011F910F91FF9048
:1008D000EF90DF900895FC01DB014081518122817E
:1008E000622F6F7770E0221F2227221F9381892FAA
:1008F000880F822B282F30E0991F9927991F119676
:100900009C93119721153105A9F5411551056105F4
:10091000710511F482E037C082E89FEF13969C9333
:100920008E9312979A01AB0167E0220F331F441F89
:10093000551F6A95D1F783E08C930DC0220F331FAA
:10094000441F551F12968D919C91139701971396F2
:100950009C938E931297203080E0380780E0480700
:1009600080E4580758F314962D933D934D935C9370
:10097000179708952F3F310579F441155105610509
:10098000710519F484E08C93089564FF03C081E03D
:100990008C9312C01C9210C02F57304013963C937A
:1009A0002E93129783E08C9387E0440F551F661FA8
:1009B000771F8A95D1F7706414964D935D936D936C
:1009C0007C9317970895991B79E004C0991F961797
:1009D00008F0961B881F7A95C9F78095089597FBB4
:1009E000092E07260AD077FD04D00CD006D00020AF
:1009F0001AF4709561957F4F0895F6F7909581955B
:100A00009F4F0895AA1BBB1B51E107C0AA1FBB1F24
:100A1000A617B70710F0A61BB70B881F991F5A958A
:100A2000A9F780959095BC01CD0108952F923F9232
:100A30004F925F926F927F928F929F92AF92BF92EE
:100A4000CF92DF92EF92FF920F931F93CF93DF939A
:100A5000CDB7DEB7CA1BDB0B0FB6F894DEBF0FBEF7
:100A6000CDBF09942A88398848885F846E847D8444
:100A70008C849B84AA84B984C884DF80EE80FD8046
:100A80000C811B81AA81B981CE0FD11D0FB6F894BC
:0E0A9000DEBF0FBECDBFED010895F894FFCF7D
:100A9E00414C41524D004D0000000000000000008E
:100AAE000001020203030303040404040404040407
:100ABE0005050505050505050505050505050505D8
:100ACE0006060606060606060606060606060606B8
:100ADE0006060606060606060606060606060606A8
:100AEE000707070707070707070707070707070788
:100AFE000707070707070707070707070707070778
:100B0E000707070707070707070707070707070767
:100B1E000707070707070707070707070707070757
:100B2E000808080808080808080808080808080837
:100B3E000808080808080808080808080808080827
:100B4E000808080808080808080808080808080817
:100B5E000808080808080808080808080808080807
:100B6E0008080808080808080808080808080808F7
:100B7E0008080808080808080808080808080808E7
:100B8E0008080808080808080808080808080808D7
:100B9E0008080808080808080808080808080808C7
:00000001FF
