:1000000012C019C018C017C016C015C014C013C044
:1000100012C011C010C00FC00EC00DC00CC00BC06C
:100020000AC009C008C011241FBECFE5D4E0DEBF5E
:10003000CDBF02D038C0E4CF83E087BB40E050E0C2
:1000400020E030E060E971E0B2990EC080ED97E009
:10005000FB013197F1F70197D9F74F5F5F4F4431BB
:10006000510511F440E050E0B3990EC080ED97E0E7
:10007000FB013197F1F70197D9F72F5F3F4F2431FB
:10008000310511F420E030E040FD04C088B38E70EB
:1000900088BB01C0C09A20FD04C088B38D7088BBA6
:0A00A000D3CFC19AD1CFF894FFCF5F
:00000001FF
