:1000000012C019C018C017C016C015C014C013C044
:1000100012C011C010C00FC00EC00DC00CC00BC06C
:100020000AC009C008C011241FBECFE5D4E0DEBF5E
:10003000CDBF02D093C0E4CF0F931F938FE087BB57
:1000400040E050E060E971E008E014E0B2E0A1E0D7
:10005000B4990EC080ED97E0FB013197F1F701975D
:10006000D9F74F5F5F4F4530510514F040E050E045
:10007000B599EECF41305105C9F420E030E013C00E
:10008000FB013197F1F70197D9F7A8BB84EC99E010
:10009000FB013197F1F70197D9F718BA2F5F3F4F5E
:1000A0002A303105A9F284EC99E0EACF42305105BB
:1000B000D1F420E030E014C0FB013197F1F7019753
:1000C000D9F7B8BB84EC99E0FB013197F1F70197C0
:1000D000D9F718BA2F5F3F4F2A30310509F4B8CF4E
:1000E00084EC99E0E9CF43305105D1F420E030E0D1
:1000F00014C0FB013197F1F70197D9F718BB84ECD5
:1001000099E0FB013197F1F70197D9F718BA2F5F02
:100110003F4F2A30310509F49BCF84EC99E0E9CFB9
:100120004430510509F094CF20E030E014C0FB01C9
:100130003197F1F70197D9F708BB84EC99E0FB01FF
:100140003197F1F70197D9F718BA2F5F3F4F2A304F
:10015000310509F47DCF84EC99E0E9CFF894FFCF25
:00000001FF
