:1000000012C02CC02BC02AC029C028C027C026C0BF
:1000100025C024C023C022C021C020C01FC01EC0D4
:100020001DC01CC01BC011241FBECFE5D4E0DEBF25
:10003000CDBF10E0A0E6B0E0E6E8F3E002C0059036
:100040000D92A636B107D9F710E0A6E6B0E001C0E0
:100050001D92AD36B107E1F7D5D093C1D1CF86E877
:1000600086B9089590E697B997B1982B97B9369AC3
:1000700080EA9FE00197F1F785B10895209166002D
:1000800090E002C09F5F2BE09817E0F3209366009A
:10009000909367000895C59888ECF0DFC59A88ECC6
:1000A000EDDFC59808951F93182F88B38F7C88BB08
:1000B000812F82958F7088BBEEDF1F7018BBEBDF3E
:1000C0001F9108951F93182F80E188BB18BA812FC4
:1000D00082958F70806188BBDEDF1F70106118BB56
:1000E000DADF1F910895CF93DF93EC0102C0EADFBE
:1000F000219688818823D9F7DF91CF910895EF92D7
:10010000FF920F931F93182F64E608D1482F282FD2
:1001100030E08CE99FEF289F7001299FF00C389FF9
:10012000F00C1124C701810F911D6AE070E002D12B
:10013000062F842F805DC6DF802F805DC3DF105DBA
:100140001E0D86EF9FEF089F002D1124802F810F39
:10015000B9DF1F910F91FF90EF900895882321F44C
:10016000862F8058A0DF0895813019F4862F80549F
:100170009ADF08950AC020E030E000002F5F3F4F73
:100180004CE02C3C3407C9F701970097A1F708957C
:100190001F938FE387BB84E190E0ECDF13E018BB93
:1001A0007ADF85E090E0E6DF18BB75DF81E090E064
:1001B000E1DF18BB70DF81E090E0DCDF82E088BB2C
:1001C0006ADF85E090E0D6DF88E26DDF81E090E0D5
:1001D000D1DF88E068DF81E090E0CCDF81E063DFA1
:1001E00081E090E0C7DF86E05EDF81E090E0C2DF83
:1001F0008CE059DF82E090E0BDDF1F91089581E03F
:1002000052DF08954F925F926F927F928F929F92EA
:10021000AF92BF92CF92DF92EF92FF920F931F9314
:10022000CF93DF938FE087BB8FEF81BB80E182BBF1
:10023000AFDF86E886B9E0E6EE2E70EAA72E7FE013
:10024000B72E60E9C62E61E0D62E51E1452E42E17F
:10025000542E34E1632E28E1722E9FE1892E80E135
:10026000982EE7B887B187B9369AC5010197F1F79B
:10027000F5B00F2D10E080ED97E0F6013197F1F722
:100280000197D9F780E060E069DF8F2D38DF81E0EA
:1002900060E064DF80E690E026DFE7B8389A369ABF
:1002A000C5010197F1F7F5B0CF2DD0E080ED97E0D3
:1002B000F6013197F1F70197D9F780E065E04EDF5D
:1002C0008F2D1DDF81E065E049DF83E690E00BDFE5
:1002D000083711050CF442BA033811050CF052BA74
:1002E000C837D1050CF462BAC338D1050CF072BA24
:1002F000849B82BA849BB5CF093711050CF4B1CF2A
:10030000023811050CF0ADCFC937D1050CF4A9CFD7
:10031000C238D1050CF0A5CF92BAA3CF991B79E0D2
:1003200004C0991F961708F0961B881F7A95C9F785
:100330008095089597FB092E07260AD077FD04D0F3
:100340000CD006D000201AF4709561957F4F089567
:10035000F6F7909581959F4F0895AA1BBB1B51E11D
:1003600007C0AA1FBB1FA617B70710F0A61BB70B25
:10037000881F991F5A95A9F780959095BC01CD01CA
:060380000895F894FFCF80
:06038600527800527900DC
:00000001FF
