:1000000012C019C018C017C016C015C014C013C044
:1000100012C011C010C00FC00EC00DC00CC00BC06C
:100020000AC009C008C011241FBECFE5D4E0DEBF5E
:10003000CDBF5BD02BC1E4CF9C016130710519F4B9
:1000400081E085BB10C06230710519F482E085BB88
:100050000FC06330710511F484E00EC06430710587
:1000600011F488E009C06530710511F480E104C025
:100070006630710511F480E285BB2130310519F439
:1000800089EF82BB12C02230310519F484EA82BBA9
:1000900012C02330310519F480EB82BB11C024302B
:1000A000310519F489E982BB10C02530310519F4F6
:1000B00082E982BB0FC02630310511F482E80EC000
:1000C0002730310511F488EF09C02830310511F4CB
:1000D00080E804C02930310519F480E982BB089515
:1000E000232B11F480EC82BB08952F923F924F9204
:1000F0005F926F927F928F929F92AF92BF92CF92B8
:10010000DF92EF92FF920F931F93CF93DF938FEFC6
:1001100081BB84BB8FE087BB21E0822E912CAA2477
:10012000BB24CC24DD2490EA692E9FE0792EB5997A
:1001300004C081E0A82EB12C04C081E0A816B1044F
:10014000E1F4C60165E070E077DFC3010197F1F7E4
:1001500080E090E066E070E06FDFC3010197F1F7A7
:10016000B5990BC088EB9BE0E0E9F1E03197F1F73E
:100170000197D1F70894C11CD11CB4990DC088EB2C
:100180009BE0E0E9F1E03197F1F70197D1F70894AE
:10019000811C911CAA24BB2480FCC9CFC0E0D0E004
:1001A00041C0C10163E070E047DFC3010197F1F78F
:1001B000C20164E070E040DFC3010197F1F7C801BC
:1001C00061E070E039DFC3010197F1F780E090E072
:1001D00062E070E031DFC3010197F1F7CC15DD0576
:1001E00031F40115110551F482E088BB07C0CC162B
:1001F000DD0624F40115110509F418BA0894E11C70
:10020000F11C8AEFE816F10461F60F5F1F4F0A3008
:10021000110519F0EE24FF24C4CF2196CB30D1056F
:1002200009F485CFCE016AE070E009D01C01CE014F
:100230006AE070E004D02B0100E010E0EBCF97FB08
:10024000092E07260AD077FD04D00CD006D0002056
:100250001AF4709561957F4F0895F6F79095819502
:100260009F4F0895AA1BBB1B51E107C0AA1FBB1FCC
:10027000A617B70710F0A61BB70B881F991F5A9532
:10028000A9F780959095BC01CD010895F894FFCF12
:00000001FF
