:1000000012C019C018C017C016C015C014C013C044
:1000100012C011C010C00FC00EC00DC00CC00BC06C
:100020000AC009C008C011241FBECFE5D4E0DEBF5E
:10003000CDBF98D074C1E4CF9C016130710519F433
:1000400081E085BB10C06230710519F482E085BB88
:100050000FC06330710511F484E00EC06430710587
:1000600011F488E009C06530710511F480E104C025
:100070006630710511F480E285BB2130310519F439
:1000800089EF82BB12C02230310519F484EA82BBA9
:1000900012C02330310519F480EB82BB11C024302B
:1000A000310519F489E982BB10C02530310519F4F6
:1000B00082E982BB0FC02630310511F482E80EC000
:1000C0002730310511F488EF09C02830310511F4CB
:1000D00080E804C02930310519F480E982BB089515
:1000E000232B11F480EC82BB08959C0166307105CE
:1000F00019F485E085BB10C06530710519F482E004
:1001000085BB0FC06430710511F484E00EC063300C
:10011000710511F488E009C06230710511F480E1C5
:1001200004C06130710511F480E285BB21303105D6
:1001300019F480EC82BB10C02230310511F486E83E
:1001400009C02330310511F48EE804C02430310594
:1001500019F481EC82BB08952530310511F482E950
:1001600082BB08955F926F927F928F929F92AF921F
:10017000BF92CF92DF92EF92FF920F931F93CF9394
:10018000DF938FEF81BB84BB8FE087BB01E010E082
:10019000AA24BB24C0E0D0E040EAC42E4FE0D42E15
:1001A00030E9632E31E0732E22E0522E06C001E0CA
:1001B00010E088249924C0E0D0E0B59904C091E013
:1001C000A92EB12C04C081E0A816B104C9F4CE0157
:1001D00065E070E031DFC6010197F1F780E090E063
:1001E00066E070E029DFC6010197F1F7B59908C014
:1001F00088EB9BE0F3013197F1F70197D9F721964E
:10020000B4990EC088EB9BE0F3013197F1F70197A9
:10021000D9F70F5F1F4FAA24BB2489E0882E912CA9
:1002200000FDCBCF7E0128C000E010E0C70163E0F5
:1002300070E002DFC6010197F1F780E090E064E032
:1002400070E0FADEC6010197F1F7CE0161E070E0DF
:10025000F3DEC6010197F1F780E090E062E070E024
:10026000EBDEC6010197F1F70F5F1F4F0A3F110543
:10027000E9F62197D7FFD8CF0894E108F1088FEF6E
:10028000E8168FEFF80611F0E401F4CF58BA80EDCC
:1002900097E0F3013197F1F70197D9F718BA80ED9C
:1002A00097E0F3013197F1F70197D9F7C0E0D0E07B
:1002B00081E090E061E070E018DFC6010197F1F79E
:1002C00082E090E062E070E010DFC6010197F1F794
:1002D00083E090E063E070E008DFC6010197F1F78A
:1002E00084E090E064E070E000DFC6010197F1F780
:1002F00085E090E065E070E0F8DEC6010197F1F777
:1003000082E090E066E070E0F0DEC6010197F1F770
:10031000219681E0CC32D80709F0CACF48CFF894B3
:02032000FFCF0D
:00000001FF
