:1000000012C021C020C01FC01EC01DC01CC01BC00C
:100010001AC019C018C017C016C015C014C013C02C
:1000200012C011C010C011241FBECFE5D4E0DEBF46
:10003000CDBF10E0A0E6B0E001C01D92A636B1072A
:10004000E1F75BD07DC0DCCF9C016130710519F414
:1000500081E085BB10C06230710519F482E085BB78
:100060000FC06330710511F484E00EC06430710577
:1000700011F488E009C06530710511F480E104C015
:100080006630710511F480E285BB2130310519F429
:1000900089EF82BB12C02230310519F484EA82BB99
:1000A00012C02330310519F480EB82BB11C024301B
:1000B000310519F489E982BB10C02530310519F4E6
:1000C00082E982BB0FC02630310511F482E80EC0F0
:1000D0002730310511F488EF09C02830310511F4BB
:1000E00080E804C02930310519F480E982BB089505
:1000F000232B11F480EC82BB0895CF93DF938FEF15
:1001000081BB84BB8FE087BBC0E9D1E0B09910C050
:1001100088EB9BE0FE013197F1F70197D9F78091C9
:10012000640090916500019690936500809364004F
:10013000809164009091650063E070E085DFE6CF18
:04014000F894FFCF61
:00000001FF
