:1000000012C021C020C01FC01EC01DC01CC01BC00C
:100010001AC019C018C017C016C015C014C013C02C
:1000200012C011C010C011241FBECFE5D4E0DEBF46
:10003000CDBF10E0A0E6B0E001C01D92A436B1072C
:10004000E1F75BD011C1DCCF9C016130710519F47F
:1000500081E085BB10C06230710519F482E085BB78
:100060000FC06330710511F484E00EC06430710577
:1000700011F488E009C06530710511F480E104C015
:100080006630710511F480E285BB2130310519F429
:1000900089EF82BB12C02230310519F484EA82BB99
:1000A00012C02330310519F480EB82BB11C024301B
:1000B000310519F489E982BB10C02530310519F4E6
:1000C00082E982BB0FC02630310511F482E80EC0F0
:1000D0002730310511F488EF09C02830310511F4BB
:1000E00080E804C02930310519F480E982BB089505
:1000F000232B11F480EC82BB0895AF92BF92CF9274
:10010000DF92EF92FF920F931F93CF93DF938FEFC6
:1001100081BB84BBC0E0D0E080EAE82E8FE0F82EFF
:100120006FC0C50161E070E08FDFC7010197F1F793
:10013000C60162E070E088DFC7010197F1F78091A6
:100140006000909161006AE070E067D063E070E069
:100150007BDFC7010197F1F780916000909161000A
:100160006AE070E05AD0CB0164E070E06DDFC70157
:100170000197F1F780916200909163006AE070E06E
:100180004CD065E070E060DFC7010197F1F7809126
:100190006200909163006AE070E03FD0CB0166E0BE
:1001A00070E052DFC7010197F1F70F5F1F4F063A6A
:1001B000110509F0B6CFC331D10549F48091600033
:1001C000909161000196909361008093600080910E
:1001D000600090916100439769F410926100109261
:1001E000600080916200909163000196909363009B
:1001F000809362002196C431D10514F0C0E0D0E0B4
:10020000CE016AE070E009D05C01CE016AE070E0E6
:1002100004D06B0100E010E084CF97FB092E072685
:100220000AD077FD04D00CD006D000201AF47095C7
:1002300061957F4F0895F6F7909581959F4F0895AA
:10024000AA1BBB1B51E107C0AA1FBB1FA617B707FC
:1002500010F0A61BB70B881F991F5A95A9F7809518
:0C0260009095BC01CD010895F894FFCFEB
:00000001FF
